{
  "contractName": "DownPayment",
  "abi": [
    {
      "inputs": [
        {
          "internalType": "address payable",
          "name": "_renter",
          "type": "address"
        },
        {
          "internalType": "address payable",
          "name": "_owner",
          "type": "address"
        },
        {
          "internalType": "uint256",
          "name": "_rentalPeriod",
          "type": "uint256"
        },
        {
          "internalType": "uint256",
          "name": "_downPaymentAmount",
          "type": "uint256"
        }
      ],
      "stateMutability": "nonpayable",
      "type": "constructor"
    },
    {
      "anonymous": false,
      "inputs": [
        {
          "indexed": false,
          "internalType": "uint256",
          "name": "endTime",
          "type": "uint256"
        }
      ],
      "name": "EndTimeSet",
      "type": "event"
    },
    {
      "inputs": [],
      "name": "downPaymentAmount",
      "outputs": [
        {
          "internalType": "uint256",
          "name": "",
          "type": "uint256"
        }
      ],
      "stateMutability": "view",
      "type": "function",
      "constant": true
    },
    {
      "inputs": [],
      "name": "downPaymentMade",
      "outputs": [
        {
          "internalType": "bool",
          "name": "",
          "type": "bool"
        }
      ],
      "stateMutability": "view",
      "type": "function",
      "constant": true
    },
    {
      "inputs": [],
      "name": "downPaymentReturned",
      "outputs": [
        {
          "internalType": "bool",
          "name": "",
          "type": "bool"
        }
      ],
      "stateMutability": "view",
      "type": "function",
      "constant": true
    },
    {
      "inputs": [],
      "name": "endTime",
      "outputs": [
        {
          "internalType": "uint256",
          "name": "",
          "type": "uint256"
        }
      ],
      "stateMutability": "view",
      "type": "function",
      "constant": true
    },
    {
      "inputs": [],
      "name": "owner",
      "outputs": [
        {
          "internalType": "address payable",
          "name": "",
          "type": "address"
        }
      ],
      "stateMutability": "view",
      "type": "function",
      "constant": true
    },
    {
      "inputs": [],
      "name": "renter",
      "outputs": [
        {
          "internalType": "address payable",
          "name": "",
          "type": "address"
        }
      ],
      "stateMutability": "view",
      "type": "function",
      "constant": true
    },
    {
      "inputs": [],
      "name": "renterApproved",
      "outputs": [
        {
          "internalType": "bool",
          "name": "",
          "type": "bool"
        }
      ],
      "stateMutability": "view",
      "type": "function",
      "constant": true
    },
    {
      "inputs": [],
      "name": "renterApprove",
      "outputs": [],
      "stateMutability": "nonpayable",
      "type": "function"
    },
    {
      "inputs": [],
      "name": "getContractBalance",
      "outputs": [
        {
          "internalType": "uint256",
          "name": "",
          "type": "uint256"
        }
      ],
      "stateMutability": "view",
      "type": "function",
      "constant": true
    },
    {
      "inputs": [],
      "name": "getEndTime",
      "outputs": [
        {
          "internalType": "uint256",
          "name": "",
          "type": "uint256"
        }
      ],
      "stateMutability": "view",
      "type": "function",
      "constant": true
    },
    {
      "inputs": [],
      "name": "payDownPayment",
      "outputs": [],
      "stateMutability": "payable",
      "type": "function",
      "payable": true
    },
    {
      "inputs": [
        {
          "internalType": "uint256",
          "name": "currentDate",
          "type": "uint256"
        }
      ],
      "name": "returnDownPayment",
      "outputs": [],
      "stateMutability": "nonpayable",
      "type": "function"
    },
    {
      "inputs": [],
      "name": "claimDownPayment",
      "outputs": [],
      "stateMutability": "nonpayable",
      "type": "function"
    },
    {
      "inputs": [],
      "name": "getRenter",
      "outputs": [
        {
          "internalType": "address payable",
          "name": "",
          "type": "address"
        }
      ],
      "stateMutability": "view",
      "type": "function",
      "constant": true
    },
    {
      "inputs": [],
      "name": "getOwner",
      "outputs": [
        {
          "internalType": "address payable",
          "name": "",
          "type": "address"
        }
      ],
      "stateMutability": "view",
      "type": "function",
      "constant": true
    },
    {
      "inputs": [],
      "name": "getDownPaymentAmount",
      "outputs": [
        {
          "internalType": "uint256",
          "name": "",
          "type": "uint256"
        }
      ],
      "stateMutability": "view",
      "type": "function",
      "constant": true
    }
  ],
  "bytecode": "0x60806040525f60045f6101000a81548160ff0219169083151502179055505f600460016101000a81548160ff0219169083151502179055505f600460026101000a81548160ff0219169083151502179055503480156200005d575f80fd5b50604051620013413803806200134183398181016040528101906200008391906200026f565b5f73ffffffffffffffffffffffffffffffffffffffff168473ffffffffffffffffffffffffffffffffffffffff1614158015620000ec57505f73ffffffffffffffffffffffffffffffffffffffff168373ffffffffffffffffffffffffffffffffffffffff1614155b6200012e576040517f08c379a000000000000000000000000000000000000000000000000000000000815260040162000125906200033c565b60405180910390fd5b835f806101000a81548173ffffffffffffffffffffffffffffffffffffffff021916908373ffffffffffffffffffffffffffffffffffffffff1602179055508260015f6101000a81548173ffffffffffffffffffffffffffffffffffffffff021916908373ffffffffffffffffffffffffffffffffffffffff160217905550806002819055508142620001c2919062000389565b60038190555050505050620003c3565b5f80fd5b5f73ffffffffffffffffffffffffffffffffffffffff82169050919050565b5f6200020182620001d6565b9050919050565b6200021381620001f5565b81146200021e575f80fd5b50565b5f81519050620002318162000208565b92915050565b5f819050919050565b6200024b8162000237565b811462000256575f80fd5b50565b5f81519050620002698162000240565b92915050565b5f805f80608085870312156200028a5762000289620001d2565b5b5f620002998782880162000221565b9450506020620002ac8782880162000221565b9350506040620002bf8782880162000259565b9250506060620002d28782880162000259565b91505092959194509250565b5f82825260208201905092915050565b7f496e76616c6964206164647265737365730000000000000000000000000000005f82015250565b5f62000324601183620002de565b91506200033182620002ee565b602082019050919050565b5f6020820190508181035f830152620003558162000316565b9050919050565b7f4e487b71000000000000000000000000000000000000000000000000000000005f52601160045260245ffd5b5f620003958262000237565b9150620003a28362000237565b9250828201905080821115620003bd57620003bc6200035c565b5b92915050565b610f7080620003d15f395ff3fe6080604052600436106100f2575f3560e01c80636f9fb98a11610089578063855e90de11610058578063855e90de146102b8578063893d20e8146102ce5780638da5cb5b146102f8578063ab2d5fa814610322576100f2565b80636f9fb98a146102105780637f6ae7701461023a5780638027b00314610264578063850c9f801461028e576100f2565b80632e88ab0b116100c55780632e88ab0b146101885780633197cbb6146101b2578063439f5ac2146101dc5780635847b5e614610206576100f2565b8063181a0cbf146100f65780631a4205911461010c5780632658d947146101365780632840d26f14610160575b5f80fd5b348015610101575f80fd5b5061010a61034c565b005b348015610117575f80fd5b5061012061054a565b60405161012d9190610a31565b60405180910390f35b348015610141575f80fd5b5061014a61055c565b6040516101579190610a62565b60405180910390f35b34801561016b575f80fd5b5061018660048036038101906101819190610aa9565b610565565b005b348015610193575f80fd5b5061019c610757565b6040516101a99190610b13565b60405180910390f35b3480156101bd575f80fd5b506101c661077a565b6040516101d39190610a62565b60405180910390f35b3480156101e7575f80fd5b506101f0610780565b6040516101fd9190610a62565b60405180910390f35b61020e610789565b005b34801561021b575f80fd5b506102246108c7565b6040516102319190610a62565b60405180910390f35b348015610245575f80fd5b5061024e6108ce565b60405161025b9190610b13565b60405180910390f35b34801561026f575f80fd5b506102786108f5565b6040516102859190610a62565b60405180910390f35b348015610299575f80fd5b506102a26108fb565b6040516102af9190610a31565b60405180910390f35b3480156102c3575f80fd5b506102cc61090e565b005b3480156102d9575f80fd5b506102e26109b7565b6040516102ef9190610b13565b60405180910390f35b348015610303575f80fd5b5061030c6109df565b6040516103199190610b13565b60405180910390f35b34801561032d575f80fd5b50610336610a04565b6040516103439190610a31565b60405180910390f35b60015f9054906101000a900473ffffffffffffffffffffffffffffffffffffffff1673ffffffffffffffffffffffffffffffffffffffff163373ffffffffffffffffffffffffffffffffffffffff16146103db576040517f08c379a00000000000000000000000000000000000000000000000000000000081526004016103d290610bac565b60405180910390fd5b600460019054906101000a900460ff1661042a576040517f08c379a000000000000000000000000000000000000000000000000000000000815260040161042190610c14565b60405180910390fd5b600460029054906101000a900460ff161561047a576040517f08c379a000000000000000000000000000000000000000000000000000000000815260040161047190610c7c565b60405180910390fd5b60045f9054906101000a900460ff166104c8576040517f08c379a00000000000000000000000000000000000000000000000000000000081526004016104bf90610ce4565b60405180910390fd5b6001600460026101000a81548160ff02191690831515021790555060015f9054906101000a900473ffffffffffffffffffffffffffffffffffffffff1673ffffffffffffffffffffffffffffffffffffffff166108fc4790811502906040515f60405180830381858888f19350505050158015610547573d5f803e3d5ffd5b50565b60045f9054906101000a900460ff1681565b5f600254905090565b5f8054906101000a900473ffffffffffffffffffffffffffffffffffffffff1673ffffffffffffffffffffffffffffffffffffffff163373ffffffffffffffffffffffffffffffffffffffff16146105f2576040517f08c379a00000000000000000000000000000000000000000000000000000000081526004016105e990610d72565b60405180910390fd5b600354811015610637576040517f08c379a000000000000000000000000000000000000000000000000000000000815260040161062e90610e26565b60405180910390fd5b600460019054906101000a900460ff16610686576040517f08c379a000000000000000000000000000000000000000000000000000000000815260040161067d90610c14565b60405180910390fd5b600460029054906101000a900460ff16156106d6576040517f08c379a00000000000000000000000000000000000000000000000000000000081526004016106cd90610c7c565b60405180910390fd5b6001600460026101000a81548160ff0219169083151502179055505f8054906101000a900473ffffffffffffffffffffffffffffffffffffffff1673ffffffffffffffffffffffffffffffffffffffff166108fc4790811502906040515f60405180830381858888f19350505050158015610753573d5f803e3d5ffd5b5050565b5f8054906101000a900473ffffffffffffffffffffffffffffffffffffffff1681565b60035481565b5f600354905090565b5f8054906101000a900473ffffffffffffffffffffffffffffffffffffffff1673ffffffffffffffffffffffffffffffffffffffff163373ffffffffffffffffffffffffffffffffffffffff1614610816576040517f08c379a000000000000000000000000000000000000000000000000000000000815260040161080d90610d72565b60405180910390fd5b600460019054906101000a900460ff1615610866576040517f08c379a000000000000000000000000000000000000000000000000000000000815260040161085d90610e8e565b60405180910390fd5b60025434146108aa576040517f08c379a00000000000000000000000000000000000000000000000000000000081526004016108a190610f1c565b60405180910390fd5b6001600460016101000a81548160ff021916908315150217905550565b5f47905090565b5f805f9054906101000a900473ffffffffffffffffffffffffffffffffffffffff16905090565b60025481565b600460019054906101000a900460ff1681565b5f8054906101000a900473ffffffffffffffffffffffffffffffffffffffff1673ffffffffffffffffffffffffffffffffffffffff163373ffffffffffffffffffffffffffffffffffffffff161461099b576040517f08c379a000000000000000000000000000000000000000000000000000000000815260040161099290610d72565b60405180910390fd5b600160045f6101000a81548160ff021916908315150217905550565b5f60015f9054906101000a900473ffffffffffffffffffffffffffffffffffffffff16905090565b60015f9054906101000a900473ffffffffffffffffffffffffffffffffffffffff1681565b600460029054906101000a900460ff1681565b5f8115159050919050565b610a2b81610a17565b82525050565b5f602082019050610a445f830184610a22565b92915050565b5f819050919050565b610a5c81610a4a565b82525050565b5f602082019050610a755f830184610a53565b92915050565b5f80fd5b610a8881610a4a565b8114610a92575f80fd5b50565b5f81359050610aa381610a7f565b92915050565b5f60208284031215610abe57610abd610a7b565b5b5f610acb84828501610a95565b91505092915050565b5f73ffffffffffffffffffffffffffffffffffffffff82169050919050565b5f610afd82610ad4565b9050919050565b610b0d81610af3565b82525050565b5f602082019050610b265f830184610b04565b92915050565b5f82825260208201905092915050565b7f4f6e6c7920746865206f776e65722063616e2063616c6c20746869732066756e5f8201527f6374696f6e000000000000000000000000000000000000000000000000000000602082015250565b5f610b96602583610b2c565b9150610ba182610b3c565b604082019050919050565b5f6020820190508181035f830152610bc381610b8a565b9050919050565b7f446f776e207061796d656e74206e6f7420796574206d616465000000000000005f82015250565b5f610bfe601983610b2c565b9150610c0982610bca565b602082019050919050565b5f6020820190508181035f830152610c2b81610bf2565b9050919050565b7f446f776e207061796d656e7420616c72656164792072657475726e65640000005f82015250565b5f610c66601d83610b2c565b9150610c7182610c32565b602082019050919050565b5f6020820190508181035f830152610c9381610c5a565b9050919050565b7f52656e74657220686173206e6f7420617070726f7665640000000000000000005f82015250565b5f610cce601783610b2c565b9150610cd982610c9a565b602082019050919050565b5f6020820190508181035f830152610cfb81610cc2565b9050919050565b7f4f6e6c79207468652072656e7465722063616e2063616c6c20746869732066755f8201527f6e6374696f6e0000000000000000000000000000000000000000000000000000602082015250565b5f610d5c602683610b2c565b9150610d6782610d02565b604082019050919050565b5f6020820190508181035f830152610d8981610d50565b9050919050565b7f43616e6e6f742072657475726e2074686520646f776e207061796d656e7420625f8201527f65666f72652074686520656e64206f66207468652072656e74616c207065726960208201527f6f64000000000000000000000000000000000000000000000000000000000000604082015250565b5f610e10604283610b2c565b9150610e1b82610d90565b606082019050919050565b5f6020820190508181035f830152610e3d81610e04565b9050919050565b7f446f776e207061796d656e7420616c7265616479206d616465000000000000005f82015250565b5f610e78601983610b2c565b9150610e8382610e44565b602082019050919050565b5f6020820190508181035f830152610ea581610e6c565b9050919050565b7f4d757374207061792074686520657861637420646f776e207061796d656e74205f8201527f616d6f756e740000000000000000000000000000000000000000000000000000602082015250565b5f610f06602683610b2c565b9150610f1182610eac565b604082019050919050565b5f6020820190508181035f830152610f3381610efa565b905091905056fea2646970667358221220aea5a3a3b54038f99797f0481b5619283d2b5c19e5823f1feb707a55876c5b4264736f6c63430008150033",
  "immutableReferences": {},
  "source": "// SPDX-License-Identifier: MIT\r\npragma solidity ^0.8.0;\r\n\r\ncontract DownPayment {\r\n    address payable public renter;\r\n    address payable public owner;\r\n    uint256 public downPaymentAmount;\r\n    uint256 public endTime;\r\n    bool public renterApproved = false;\r\n    bool public downPaymentMade = false;\r\n    bool public downPaymentReturned = false;\r\n\r\n    modifier onlyRenter() {\r\n        require(msg.sender == renter, \"Only the renter can call this function\");\r\n        _;\r\n    }\r\n\r\n    modifier onlyOwner() {\r\n        require(msg.sender == owner, \"Only the owner can call this function\");\r\n        _;\r\n    }\r\n\r\n    function renterApprove() public onlyRenter {\r\n        renterApproved = true;\r\n    }\r\n    event EndTimeSet(uint256 endTime);\r\n\r\n    constructor(\r\n        address payable _renter,\r\n        address payable _owner,\r\n        uint256 _rentalPeriod,\r\n        uint256 _downPaymentAmount\r\n    ) {\r\n        require(\r\n            _renter != address(0) && _owner != address(0),\r\n            \"Invalid addresses\"\r\n        );\r\n\r\n        renter = _renter;\r\n        owner = _owner;\r\n        downPaymentAmount = _downPaymentAmount;\r\n        endTime = block.timestamp + _rentalPeriod;\r\n    }\r\n\r\n    function getContractBalance() public view returns (uint256) {\r\n        return address(this).balance;\r\n    }\r\n\r\n    function getEndTime() public view returns (uint256) {\r\n        return endTime;\r\n    }\r\n\r\n    function payDownPayment() public payable onlyRenter {\r\n        require(!downPaymentMade, \"Down payment already made\");\r\n        require(\r\n            msg.value == downPaymentAmount,\r\n            \"Must pay the exact down payment amount\"\r\n        );\r\n        downPaymentMade = true;\r\n    }\r\n\r\n    function returnDownPayment(uint256 currentDate) public onlyRenter {\r\n        require(\r\n            currentDate >= endTime,\r\n            \"Cannot return the down payment before the end of the rental period\"\r\n        );\r\n        require(downPaymentMade, \"Down payment not yet made\");\r\n        require(!downPaymentReturned, \"Down payment already returned\");\r\n        downPaymentReturned = true;\r\n        renter.transfer(address(this).balance);\r\n    }\r\n\r\n    function claimDownPayment() public onlyOwner {\r\n        require(downPaymentMade, \"Down payment not yet made\");\r\n        require(!downPaymentReturned, \"Down payment already returned\");\r\n        require(renterApproved, \"Renter has not approved\");\r\n        downPaymentReturned = true;\r\n        owner.transfer(address(this).balance);\r\n    }\r\n\r\n    function getRenter() public view returns (address payable) {\r\n        \r\n        return renter;\r\n    }\r\n    \r\n    function getOwner() public view returns (address payable) {\r\n        return owner;\r\n    }\r\n    \r\n    function getDownPaymentAmount() public view returns (uint256) {\r\n        return downPaymentAmount;\r\n    }\r\n}\r\n",
  "sourcePath": "C:\\Users\\seifj\\OneDrive\\Documents\\GitHub\\cryptorides\\payment\\contracts\\DownPayment.sol",
  "compiler": {
    "name": "solc",
    "version": "0.8.21+commit.d9974bed.Emscripten.clang"
  },
  "schemaVersion": "3.4.16",
  "updatedAt": "2024-05-01T18:40:00.203Z",
  "networkType": "ethereum",
  "devdoc": {
    "kind": "dev",
    "methods": {},
    "version": 1
  },
  "userdoc": {
    "kind": "user",
    "methods": {},
    "version": 1
  }
}