{
  "contractName": "DownPayment",
  "abi": [
    {
      "inputs": [
        {
          "internalType": "address payable",
          "name": "_renter",
          "type": "address"
        },
        {
          "internalType": "address payable",
          "name": "_owner",
          "type": "address"
        },
        {
          "internalType": "uint256",
          "name": "_rentalPeriod",
          "type": "uint256"
        },
        {
          "internalType": "uint256",
          "name": "_downPaymentAmount",
          "type": "uint256"
        }
      ],
      "stateMutability": "nonpayable",
      "type": "constructor"
    },
    {
      "anonymous": false,
      "inputs": [
        {
          "indexed": false,
          "internalType": "uint256",
          "name": "endTime",
          "type": "uint256"
        }
      ],
      "name": "EndTimeSet",
      "type": "event"
    },
    {
      "inputs": [],
      "name": "downPaymentAmount",
      "outputs": [
        {
          "internalType": "uint256",
          "name": "",
          "type": "uint256"
        }
      ],
      "stateMutability": "view",
      "type": "function",
      "constant": true
    },
    {
      "inputs": [],
      "name": "downPaymentMade",
      "outputs": [
        {
          "internalType": "bool",
          "name": "",
          "type": "bool"
        }
      ],
      "stateMutability": "view",
      "type": "function",
      "constant": true
    },
    {
      "inputs": [],
      "name": "downPaymentReturned",
      "outputs": [
        {
          "internalType": "bool",
          "name": "",
          "type": "bool"
        }
      ],
      "stateMutability": "view",
      "type": "function",
      "constant": true
    },
    {
      "inputs": [],
      "name": "endTime",
      "outputs": [
        {
          "internalType": "uint256",
          "name": "",
          "type": "uint256"
        }
      ],
      "stateMutability": "view",
      "type": "function",
      "constant": true
    },
    {
      "inputs": [],
      "name": "owner",
      "outputs": [
        {
          "internalType": "address payable",
          "name": "",
          "type": "address"
        }
      ],
      "stateMutability": "view",
      "type": "function",
      "constant": true
    },
    {
      "inputs": [],
      "name": "renter",
      "outputs": [
        {
          "internalType": "address payable",
          "name": "",
          "type": "address"
        }
      ],
      "stateMutability": "view",
      "type": "function",
      "constant": true
    },
    {
      "inputs": [],
      "name": "renterApproved",
      "outputs": [
        {
          "internalType": "bool",
          "name": "",
          "type": "bool"
        }
      ],
      "stateMutability": "view",
      "type": "function",
      "constant": true
    },
    {
      "inputs": [],
      "name": "renterApprove",
      "outputs": [],
      "stateMutability": "nonpayable",
      "type": "function"
    },
    {
      "inputs": [],
      "name": "getContractBalance",
      "outputs": [
        {
          "internalType": "uint256",
          "name": "",
          "type": "uint256"
        }
      ],
      "stateMutability": "view",
      "type": "function",
      "constant": true
    },
    {
      "inputs": [],
      "name": "getEndTime",
      "outputs": [
        {
          "internalType": "uint256",
          "name": "",
          "type": "uint256"
        }
      ],
      "stateMutability": "view",
      "type": "function",
      "constant": true
    },
    {
      "inputs": [],
      "name": "payDownPayment",
      "outputs": [],
      "stateMutability": "payable",
      "type": "function",
      "payable": true
    },
    {
      "inputs": [],
      "name": "returnDownPayment",
      "outputs": [],
      "stateMutability": "nonpayable",
      "type": "function"
    },
    {
      "inputs": [],
      "name": "claimDownPayment",
      "outputs": [],
      "stateMutability": "nonpayable",
      "type": "function"
    },
    {
      "inputs": [],
      "name": "getRenter",
      "outputs": [
        {
          "internalType": "address payable",
          "name": "",
          "type": "address"
        }
      ],
      "stateMutability": "view",
      "type": "function",
      "constant": true
    },
    {
      "inputs": [],
      "name": "getOwner",
      "outputs": [
        {
          "internalType": "address payable",
          "name": "",
          "type": "address"
        }
      ],
      "stateMutability": "view",
      "type": "function",
      "constant": true
    },
    {
      "inputs": [],
      "name": "getDownPaymentAmount",
      "outputs": [
        {
          "internalType": "uint256",
          "name": "",
          "type": "uint256"
        }
      ],
      "stateMutability": "view",
      "type": "function",
      "constant": true
    }
  ],
  "bytecode": "0x60806040525f60045f6101000a81548160ff0219169083151502179055505f600460016101000a81548160ff0219169083151502179055505f600460026101000a81548160ff0219169083151502179055503480156200005d575f80fd5b50604051620012d5380380620012d583398181016040528101906200008391906200026f565b5f73ffffffffffffffffffffffffffffffffffffffff168473ffffffffffffffffffffffffffffffffffffffff1614158015620000ec57505f73ffffffffffffffffffffffffffffffffffffffff168373ffffffffffffffffffffffffffffffffffffffff1614155b6200012e576040517f08c379a000000000000000000000000000000000000000000000000000000000815260040162000125906200033c565b60405180910390fd5b835f806101000a81548173ffffffffffffffffffffffffffffffffffffffff021916908373ffffffffffffffffffffffffffffffffffffffff1602179055508260015f6101000a81548173ffffffffffffffffffffffffffffffffffffffff021916908373ffffffffffffffffffffffffffffffffffffffff160217905550806002819055508142620001c2919062000389565b60038190555050505050620003c3565b5f80fd5b5f73ffffffffffffffffffffffffffffffffffffffff82169050919050565b5f6200020182620001d6565b9050919050565b6200021381620001f5565b81146200021e575f80fd5b50565b5f81519050620002318162000208565b92915050565b5f819050919050565b6200024b8162000237565b811462000256575f80fd5b50565b5f81519050620002698162000240565b92915050565b5f805f80608085870312156200028a5762000289620001d2565b5b5f620002998782880162000221565b9450506020620002ac8782880162000221565b9350506040620002bf8782880162000259565b9250506060620002d28782880162000259565b91505092959194509250565b5f82825260208201905092915050565b7f496e76616c6964206164647265737365730000000000000000000000000000005f82015250565b5f62000324601183620002de565b91506200033182620002ee565b602082019050919050565b5f6020820190508181035f830152620003558162000316565b9050919050565b7f4e487b71000000000000000000000000000000000000000000000000000000005f52601160045260245ffd5b5f620003958262000237565b9150620003a28362000237565b9250828201905080821115620003bd57620003bc6200035c565b5b92915050565b610f0480620003d15f395ff3fe6080604052600436106100f2575f3560e01c80636f9fb98a11610089578063855e90de11610058578063855e90de146102a6578063893d20e8146102bc5780638da5cb5b146102e6578063ab2d5fa814610310576100f2565b80636f9fb98a146101fe5780637f6ae770146102285780638027b00314610252578063850c9f801461027c576100f2565b80632e88ab0b116100c55780632e88ab0b146101765780633197cbb6146101a0578063439f5ac2146101ca5780635847b5e6146101f4576100f2565b8063181a0cbf146100f65780631a4205911461010c5780632651aa40146101365780632658d9471461014c575b5f80fd5b348015610101575f80fd5b5061010a61033a565b005b348015610117575f80fd5b50610120610538565b60405161012d9190610a1e565b60405180910390f35b348015610141575f80fd5b5061014a61054a565b005b348015610157575f80fd5b5061016061073b565b60405161016d9190610a4f565b60405180910390f35b348015610181575f80fd5b5061018a610744565b6040516101979190610aa7565b60405180910390f35b3480156101ab575f80fd5b506101b4610767565b6040516101c19190610a4f565b60405180910390f35b3480156101d5575f80fd5b506101de61076d565b6040516101eb9190610a4f565b60405180910390f35b6101fc610776565b005b348015610209575f80fd5b506102126108b4565b60405161021f9190610a4f565b60405180910390f35b348015610233575f80fd5b5061023c6108bb565b6040516102499190610aa7565b60405180910390f35b34801561025d575f80fd5b506102666108e2565b6040516102739190610a4f565b60405180910390f35b348015610287575f80fd5b506102906108e8565b60405161029d9190610a1e565b60405180910390f35b3480156102b1575f80fd5b506102ba6108fb565b005b3480156102c7575f80fd5b506102d06109a4565b6040516102dd9190610aa7565b60405180910390f35b3480156102f1575f80fd5b506102fa6109cc565b6040516103079190610aa7565b60405180910390f35b34801561031b575f80fd5b506103246109f1565b6040516103319190610a1e565b60405180910390f35b60015f9054906101000a900473ffffffffffffffffffffffffffffffffffffffff1673ffffffffffffffffffffffffffffffffffffffff163373ffffffffffffffffffffffffffffffffffffffff16146103c9576040517f08c379a00000000000000000000000000000000000000000000000000000000081526004016103c090610b40565b60405180910390fd5b600460019054906101000a900460ff16610418576040517f08c379a000000000000000000000000000000000000000000000000000000000815260040161040f90610ba8565b60405180910390fd5b600460029054906101000a900460ff1615610468576040517f08c379a000000000000000000000000000000000000000000000000000000000815260040161045f90610c10565b60405180910390fd5b60045f9054906101000a900460ff166104b6576040517f08c379a00000000000000000000000000000000000000000000000000000000081526004016104ad90610c78565b60405180910390fd5b6001600460026101000a81548160ff02191690831515021790555060015f9054906101000a900473ffffffffffffffffffffffffffffffffffffffff1673ffffffffffffffffffffffffffffffffffffffff166108fc4790811502906040515f60405180830381858888f19350505050158015610535573d5f803e3d5ffd5b50565b60045f9054906101000a900460ff1681565b5f8054906101000a900473ffffffffffffffffffffffffffffffffffffffff1673ffffffffffffffffffffffffffffffffffffffff163373ffffffffffffffffffffffffffffffffffffffff16146105d7576040517f08c379a00000000000000000000000000000000000000000000000000000000081526004016105ce90610d06565b60405180910390fd5b60035442101561061c576040517f08c379a000000000000000000000000000000000000000000000000000000000815260040161061390610dba565b60405180910390fd5b600460019054906101000a900460ff1661066b576040517f08c379a000000000000000000000000000000000000000000000000000000000815260040161066290610ba8565b60405180910390fd5b600460029054906101000a900460ff16156106bb576040517f08c379a00000000000000000000000000000000000000000000000000000000081526004016106b290610c10565b60405180910390fd5b6001600460026101000a81548160ff0219169083151502179055505f8054906101000a900473ffffffffffffffffffffffffffffffffffffffff1673ffffffffffffffffffffffffffffffffffffffff166108fc4790811502906040515f60405180830381858888f19350505050158015610738573d5f803e3d5ffd5b50565b5f600254905090565b5f8054906101000a900473ffffffffffffffffffffffffffffffffffffffff1681565b60035481565b5f600354905090565b5f8054906101000a900473ffffffffffffffffffffffffffffffffffffffff1673ffffffffffffffffffffffffffffffffffffffff163373ffffffffffffffffffffffffffffffffffffffff1614610803576040517f08c379a00000000000000000000000000000000000000000000000000000000081526004016107fa90610d06565b60405180910390fd5b600460019054906101000a900460ff1615610853576040517f08c379a000000000000000000000000000000000000000000000000000000000815260040161084a90610e22565b60405180910390fd5b6002543414610897576040517f08c379a000000000000000000000000000000000000000000000000000000000815260040161088e90610eb0565b60405180910390fd5b6001600460016101000a81548160ff021916908315150217905550565b5f47905090565b5f805f9054906101000a900473ffffffffffffffffffffffffffffffffffffffff16905090565b60025481565b600460019054906101000a900460ff1681565b5f8054906101000a900473ffffffffffffffffffffffffffffffffffffffff1673ffffffffffffffffffffffffffffffffffffffff163373ffffffffffffffffffffffffffffffffffffffff1614610988576040517f08c379a000000000000000000000000000000000000000000000000000000000815260040161097f90610d06565b60405180910390fd5b600160045f6101000a81548160ff021916908315150217905550565b5f60015f9054906101000a900473ffffffffffffffffffffffffffffffffffffffff16905090565b60015f9054906101000a900473ffffffffffffffffffffffffffffffffffffffff1681565b600460029054906101000a900460ff1681565b5f8115159050919050565b610a1881610a04565b82525050565b5f602082019050610a315f830184610a0f565b92915050565b5f819050919050565b610a4981610a37565b82525050565b5f602082019050610a625f830184610a40565b92915050565b5f73ffffffffffffffffffffffffffffffffffffffff82169050919050565b5f610a9182610a68565b9050919050565b610aa181610a87565b82525050565b5f602082019050610aba5f830184610a98565b92915050565b5f82825260208201905092915050565b7f4f6e6c7920746865206f776e65722063616e2063616c6c20746869732066756e5f8201527f6374696f6e000000000000000000000000000000000000000000000000000000602082015250565b5f610b2a602583610ac0565b9150610b3582610ad0565b604082019050919050565b5f6020820190508181035f830152610b5781610b1e565b9050919050565b7f446f776e207061796d656e74206e6f7420796574206d616465000000000000005f82015250565b5f610b92601983610ac0565b9150610b9d82610b5e565b602082019050919050565b5f6020820190508181035f830152610bbf81610b86565b9050919050565b7f446f776e207061796d656e7420616c72656164792072657475726e65640000005f82015250565b5f610bfa601d83610ac0565b9150610c0582610bc6565b602082019050919050565b5f6020820190508181035f830152610c2781610bee565b9050919050565b7f52656e74657220686173206e6f7420617070726f7665640000000000000000005f82015250565b5f610c62601783610ac0565b9150610c6d82610c2e565b602082019050919050565b5f6020820190508181035f830152610c8f81610c56565b9050919050565b7f4f6e6c79207468652072656e7465722063616e2063616c6c20746869732066755f8201527f6e6374696f6e0000000000000000000000000000000000000000000000000000602082015250565b5f610cf0602683610ac0565b9150610cfb82610c96565b604082019050919050565b5f6020820190508181035f830152610d1d81610ce4565b9050919050565b7f43616e6e6f742072657475726e2074686520646f776e207061796d656e7420625f8201527f65666f72652074686520656e64206f66207468652072656e74616c207065726960208201527f6f64000000000000000000000000000000000000000000000000000000000000604082015250565b5f610da4604283610ac0565b9150610daf82610d24565b606082019050919050565b5f6020820190508181035f830152610dd181610d98565b9050919050565b7f446f776e207061796d656e7420616c7265616479206d616465000000000000005f82015250565b5f610e0c601983610ac0565b9150610e1782610dd8565b602082019050919050565b5f6020820190508181035f830152610e3981610e00565b9050919050565b7f4d757374207061792074686520657861637420646f776e207061796d656e74205f8201527f616d6f756e740000000000000000000000000000000000000000000000000000602082015250565b5f610e9a602683610ac0565b9150610ea582610e40565b604082019050919050565b5f6020820190508181035f830152610ec781610e8e565b905091905056fea264697066735822122048653d2f55c6458898b3279192fad965f75a8d6eda3802204828447685a56cc664736f6c63430008150033",
  "immutableReferences": {},
  "source": "// SPDX-License-Identifier: MIT\r\npragma solidity ^0.8.0;\r\n\r\ncontract DownPayment {\r\n    address payable public renter;\r\n    address payable public owner;\r\n    uint256 public downPaymentAmount;\r\n    uint256 public endTime;\r\n    bool public renterApproved = false;\r\n    bool public downPaymentMade = false;\r\n    bool public downPaymentReturned = false;\r\n\r\n    modifier onlyRenter() {\r\n        require(msg.sender == renter, \"Only the renter can call this function\");\r\n        _;\r\n    }\r\n\r\n    modifier onlyOwner() {\r\n        require(msg.sender == owner, \"Only the owner can call this function\");\r\n        _;\r\n    }\r\n\r\n    function renterApprove() public onlyRenter {\r\n        renterApproved = true;\r\n    }\r\n    event EndTimeSet(uint256 endTime);\r\n\r\n    constructor(\r\n        address payable _renter,\r\n        address payable _owner,\r\n        uint256 _rentalPeriod,\r\n        uint256 _downPaymentAmount\r\n    ) {\r\n        require(\r\n            _renter != address(0) && _owner != address(0),\r\n            \"Invalid addresses\"\r\n        );\r\n\r\n        renter = _renter;\r\n        owner = _owner;\r\n        downPaymentAmount = _downPaymentAmount;\r\n        endTime = block.timestamp + _rentalPeriod;\r\n    }\r\n\r\n    function getContractBalance() public view returns (uint256) {\r\n        return address(this).balance;\r\n    }\r\n\r\n    function getEndTime() public view returns (uint256) {\r\n        return endTime;\r\n    }\r\n\r\n    function payDownPayment() public payable onlyRenter {\r\n        require(!downPaymentMade, \"Down payment already made\");\r\n        require(\r\n            msg.value == downPaymentAmount,\r\n            \"Must pay the exact down payment amount\"\r\n        );\r\n        downPaymentMade = true;\r\n    }\r\n\r\n    function returnDownPayment() public onlyRenter {\r\n        require(\r\n            block.timestamp >= endTime,\r\n            \"Cannot return the down payment before the end of the rental period\"\r\n        );\r\n        require(downPaymentMade, \"Down payment not yet made\");\r\n        require(!downPaymentReturned, \"Down payment already returned\");\r\n        downPaymentReturned = true;\r\n        renter.transfer(address(this).balance);\r\n    }\r\n\r\n    function claimDownPayment() public onlyOwner {\r\n        require(downPaymentMade, \"Down payment not yet made\");\r\n        require(!downPaymentReturned, \"Down payment already returned\");\r\n        require(renterApproved, \"Renter has not approved\");\r\n        downPaymentReturned = true;\r\n        owner.transfer(address(this).balance);\r\n    }\r\n\r\n    function getRenter() public view returns (address payable) {\r\n        \r\n        return renter;\r\n    }\r\n    \r\n    function getOwner() public view returns (address payable) {\r\n        return owner;\r\n    }\r\n    \r\n    function getDownPaymentAmount() public view returns (uint256) {\r\n        return downPaymentAmount;\r\n    }\r\n}\r\n",
  "sourcePath": "C:\\Users\\seifj\\OneDrive\\Documents\\GitHub\\cryptorides\\payment\\contracts\\DownPayment.sol",
  "compiler": {
    "name": "solc",
    "version": "0.8.21+commit.d9974bed.Emscripten.clang"
  },
  "schemaVersion": "3.4.16",
  "updatedAt": "2024-05-01T01:45:30.834Z",
  "networkType": "ethereum",
  "devdoc": {
    "kind": "dev",
    "methods": {},
    "version": 1
  },
  "userdoc": {
    "kind": "user",
    "methods": {},
    "version": 1
  }
}