{
  "contractName": "RentalPayment",
  "abi": [
    {
      "inputs": [
        {
          "internalType": "address",
          "name": "_renter",
          "type": "address"
        },
        {
          "internalType": "address payable",
          "name": "_owner",
          "type": "address"
        },
        {
          "internalType": "uint256",
          "name": "_rentAmount",
          "type": "uint256"
        }
      ],
      "stateMutability": "nonpayable",
      "type": "constructor"
    },
    {
      "inputs": [],
      "name": "isRentPaid",
      "outputs": [
        {
          "internalType": "bool",
          "name": "",
          "type": "bool"
        }
      ],
      "stateMutability": "view",
      "type": "function",
      "constant": true
    },
    {
      "inputs": [],
      "name": "owner",
      "outputs": [
        {
          "internalType": "address payable",
          "name": "",
          "type": "address"
        }
      ],
      "stateMutability": "view",
      "type": "function",
      "constant": true
    },
    {
      "inputs": [],
      "name": "rentAmount",
      "outputs": [
        {
          "internalType": "uint256",
          "name": "",
          "type": "uint256"
        }
      ],
      "stateMutability": "view",
      "type": "function",
      "constant": true
    },
    {
      "inputs": [],
      "name": "renter",
      "outputs": [
        {
          "internalType": "address",
          "name": "",
          "type": "address"
        }
      ],
      "stateMutability": "view",
      "type": "function",
      "constant": true
    },
    {
      "inputs": [],
      "name": "getRenter",
      "outputs": [
        {
          "internalType": "address",
          "name": "",
          "type": "address"
        }
      ],
      "stateMutability": "view",
      "type": "function",
      "constant": true
    },
    {
      "inputs": [],
      "name": "getOwner",
      "outputs": [
        {
          "internalType": "address",
          "name": "",
          "type": "address"
        }
      ],
      "stateMutability": "view",
      "type": "function",
      "constant": true
    },
    {
      "inputs": [],
      "name": "getRentAmount",
      "outputs": [
        {
          "internalType": "uint256",
          "name": "",
          "type": "uint256"
        }
      ],
      "stateMutability": "view",
      "type": "function",
      "constant": true
    },
    {
      "inputs": [],
      "name": "payRent",
      "outputs": [],
      "stateMutability": "payable",
      "type": "function",
      "payable": true
    },
    {
      "inputs": [],
      "name": "withdrawRent",
      "outputs": [],
      "stateMutability": "nonpayable",
      "type": "function"
    }
  ],
  "bytecode": "0x60806040525f60035f6101000a81548160ff02191690831515021790555034801562000029575f80fd5b5060405162000e5538038062000e5583398181016040528101906200004f9190620002e4565b5f73ffffffffffffffffffffffffffffffffffffffff168373ffffffffffffffffffffffffffffffffffffffff1603620000c0576040517f08c379a0000000000000000000000000000000000000000000000000000000008152600401620000b7906200039b565b60405180910390fd5b5f73ffffffffffffffffffffffffffffffffffffffff168273ffffffffffffffffffffffffffffffffffffffff160362000131576040517f08c379a0000000000000000000000000000000000000000000000000000000008152600401620001289062000409565b60405180910390fd5b5f811162000176576040517f08c379a00000000000000000000000000000000000000000000000000000000081526004016200016d9062000477565b60405180910390fd5b815f806101000a81548173ffffffffffffffffffffffffffffffffffffffff021916908373ffffffffffffffffffffffffffffffffffffffff1602179055508260015f6101000a81548173ffffffffffffffffffffffffffffffffffffffff021916908373ffffffffffffffffffffffffffffffffffffffff1602179055508060028190555050505062000497565b5f80fd5b5f73ffffffffffffffffffffffffffffffffffffffff82169050919050565b5f620002348262000209565b9050919050565b620002468162000228565b811462000251575f80fd5b50565b5f8151905062000264816200023b565b92915050565b5f620002768262000209565b9050919050565b62000288816200026a565b811462000293575f80fd5b50565b5f81519050620002a6816200027d565b92915050565b5f819050919050565b620002c081620002ac565b8114620002cb575f80fd5b50565b5f81519050620002de81620002b5565b92915050565b5f805f60608486031215620002fe57620002fd62000205565b5b5f6200030d8682870162000254565b9350506020620003208682870162000296565b92505060406200033386828701620002ce565b9150509250925092565b5f82825260208201905092915050565b7f496e76616c69642072656e7465722061646472657373000000000000000000005f82015250565b5f620003836016836200033d565b915062000390826200034d565b602082019050919050565b5f6020820190508181035f830152620003b48162000375565b9050919050565b7f496e76616c6964206f776e6572206164647265737300000000000000000000005f82015250565b5f620003f16015836200033d565b9150620003fe82620003bb565b602082019050919050565b5f6020820190508181035f8301526200042281620003e3565b9050919050565b7f496e76616c69642072656e7420616d6f756e74000000000000000000000000005f82015250565b5f6200045f6013836200033d565b91506200046c8262000429565b602082019050919050565b5f6020820190508181035f830152620004908162000451565b9050919050565b6109b080620004a55f395ff3fe608060405260043610610085575f3560e01c80637f6ae770116100585780637f6ae7701461011d578063893d20e8146101475780638da5cb5b14610171578063a709c4fe1461019b578063f8ef1e13146101a557610085565b80630295535f146100895780631c40bfd3146100b35780632e88ab0b146100dd5780636322182e14610107575b5f80fd5b348015610094575f80fd5b5061009d6101cf565b6040516100aa91906105d1565b60405180910390f35b3480156100be575f80fd5b506100c76101d8565b6040516100d49190610604565b60405180910390f35b3480156100e8575f80fd5b506100f16101ea565b6040516100fe919061065c565b60405180910390f35b348015610112575f80fd5b5061011b61020f565b005b348015610128575f80fd5b5061013161038e565b60405161013e919061065c565b60405180910390f35b348015610152575f80fd5b5061015b6103b6565b604051610168919061065c565b60405180910390f35b34801561017c575f80fd5b506101856103dd565b6040516101929190610695565b60405180910390f35b6101a3610400565b005b3480156101b0575f80fd5b506101b96105b3565b6040516101c691906105d1565b60405180910390f35b5f600254905090565b60035f9054906101000a900460ff1681565b60015f9054906101000a900473ffffffffffffffffffffffffffffffffffffffff1681565b5f8054906101000a900473ffffffffffffffffffffffffffffffffffffffff1673ffffffffffffffffffffffffffffffffffffffff163373ffffffffffffffffffffffffffffffffffffffff161461029c576040517f08c379a00000000000000000000000000000000000000000000000000000000081526004016102939061072e565b60405180910390fd5b5f8054906101000a900473ffffffffffffffffffffffffffffffffffffffff1673ffffffffffffffffffffffffffffffffffffffff163373ffffffffffffffffffffffffffffffffffffffff1614610329576040517f08c379a000000000000000000000000000000000000000000000000000000000815260040161032090610796565b60405180910390fd5b5f8054906101000a900473ffffffffffffffffffffffffffffffffffffffff1673ffffffffffffffffffffffffffffffffffffffff166108fc4790811502906040515f60405180830381858888f1935050505015801561038b573d5f803e3d5ffd5b50565b5f60015f9054906101000a900473ffffffffffffffffffffffffffffffffffffffff16905090565b5f805f9054906101000a900473ffffffffffffffffffffffffffffffffffffffff16905090565b5f8054906101000a900473ffffffffffffffffffffffffffffffffffffffff1681565b60015f9054906101000a900473ffffffffffffffffffffffffffffffffffffffff1673ffffffffffffffffffffffffffffffffffffffff163373ffffffffffffffffffffffffffffffffffffffff161461048f576040517f08c379a000000000000000000000000000000000000000000000000000000000815260040161048690610824565b60405180910390fd5b60015f9054906101000a900473ffffffffffffffffffffffffffffffffffffffff1673ffffffffffffffffffffffffffffffffffffffff163373ffffffffffffffffffffffffffffffffffffffff161461051e576040517f08c379a00000000000000000000000000000000000000000000000000000000081526004016105159061088c565b60405180910390fd5b6002543414610562576040517f08c379a0000000000000000000000000000000000000000000000000000000008152600401610559906108f4565b60405180910390fd5b60035f9054906101000a900460ff16156105b1576040517f08c379a00000000000000000000000000000000000000000000000000000000081526004016105a89061095c565b60405180910390fd5b565b60025481565b5f819050919050565b6105cb816105b9565b82525050565b5f6020820190506105e45f8301846105c2565b92915050565b5f8115159050919050565b6105fe816105ea565b82525050565b5f6020820190506106175f8301846105f5565b92915050565b5f73ffffffffffffffffffffffffffffffffffffffff82169050919050565b5f6106468261061d565b9050919050565b6106568161063c565b82525050565b5f60208201905061066f5f83018461064d565b92915050565b5f61067f8261061d565b9050919050565b61068f81610675565b82525050565b5f6020820190506106a85f830184610686565b92915050565b5f82825260208201905092915050565b7f4f6e6c7920746865206f776e65722063616e2063616c6c20746869732066756e5f8201527f6374696f6e000000000000000000000000000000000000000000000000000000602082015250565b5f6107186025836106ae565b9150610723826106be565b604082019050919050565b5f6020820190508181035f8301526107458161070c565b9050919050565b7f4f6e6c7920746865206f776e65722063616e2077697468647261772072656e745f82015250565b5f6107806020836106ae565b915061078b8261074c565b602082019050919050565b5f6020820190508181035f8301526107ad81610774565b9050919050565b7f4f6e6c79207468652072656e7465722063616e2063616c6c20746869732066755f8201527f6e6374696f6e0000000000000000000000000000000000000000000000000000602082015250565b5f61080e6026836106ae565b9150610819826107b4565b604082019050919050565b5f6020820190508181035f83015261083b81610802565b9050919050565b7f4f6e6c79207468652072656e7465722063616e207061792072656e74000000005f82015250565b5f610876601c836106ae565b915061088182610842565b602082019050919050565b5f6020820190508181035f8301526108a38161086a565b9050919050565b7f4d757374207061792074686520636f72726563742072656e7420616d6f756e745f82015250565b5f6108de6020836106ae565b91506108e9826108aa565b602082019050919050565b5f6020820190508181035f83015261090b816108d2565b9050919050565b7f52656e742068617320616c7265616479206265656e20706169640000000000005f82015250565b5f610946601a836106ae565b915061095182610912565b602082019050919050565b5f6020820190508181035f8301526109738161093a565b905091905056fea2646970667358221220ab54edcefec78c3086f42f20725217a998c3b234dea9598543fa401b3714ad1b64736f6c63430008150033",
  "immutableReferences": {},
  "source": "// SPDX-License-Identifier: MIT\r\npragma solidity ^0.8.0;\r\n\r\ncontract RentalPayment {\r\n    address payable public owner;\r\n    address public renter;\r\n    uint256 public rentAmount;\r\n    bool public isRentPaid = false;\r\n\r\n\r\n    constructor(address _renter, address payable _owner, uint256 _rentAmount) {\r\n        require(_renter != address(0), \"Invalid renter address\");\r\n        require(_owner != address(0), \"Invalid owner address\");\r\n        require(_rentAmount > 0, \"Invalid rent amount\");\r\n\r\n        owner = _owner;\r\n        renter = _renter;\r\n        rentAmount = _rentAmount;\r\n    }\r\n\r\n    modifier onlyRenter() {\r\n        require(msg.sender == renter, \"Only the renter can call this function\");\r\n        _;\r\n    }\r\n\r\n    modifier onlyOwner() {\r\n        require(msg.sender == owner, \"Only the owner can call this function\");\r\n        _;\r\n    }\r\n\r\n    function getRenter() public view returns (address) {\r\n        return renter;\r\n    }\r\n\r\n    function getOwner() public view returns (address) {\r\n        return owner;\r\n    }\r\n\r\n    function getRentAmount() public view returns (uint256) {\r\n        return rentAmount;\r\n    }\r\n    function payRent() public payable onlyRenter {\r\n        require(msg.sender == renter, \"Only the renter can pay rent\");\r\n        require(msg.value == rentAmount, \"Must pay the correct rent amount\");\r\n        require(!isRentPaid, \"Rent has already been paid\");\r\n    }\r\n\r\n    function withdrawRent() public onlyOwner {\r\n        require(msg.sender == owner, \"Only the owner can withdraw rent\");\r\n        owner.transfer(address(this).balance);\r\n    }\r\n}\r\n",
  "sourcePath": "C:\\Users\\seifj\\OneDrive\\Documents\\GitHub\\cryptorides\\payment\\contracts\\RentalPayment.sol",
  "compiler": {
    "name": "solc",
    "version": "0.8.21+commit.d9974bed.Emscripten.clang"
  },
  "schemaVersion": "3.4.16",
  "updatedAt": "2024-05-01T18:40:00.301Z",
  "networkType": "ethereum",
  "devdoc": {
    "kind": "dev",
    "methods": {},
    "version": 1
  },
  "userdoc": {
    "kind": "user",
    "methods": {},
    "version": 1
  }
}