{
  "contractName": "RentalPayment",
  "abi": [
    {
      "inputs": [
        {
          "internalType": "address",
          "name": "_renter",
          "type": "address"
        },
        {
          "internalType": "uint256",
          "name": "_rentAmount",
          "type": "uint256"
        }
      ],
      "stateMutability": "nonpayable",
      "type": "constructor"
    },
    {
      "inputs": [],
      "name": "owner",
      "outputs": [
        {
          "internalType": "address payable",
          "name": "",
          "type": "address"
        }
      ],
      "stateMutability": "view",
      "type": "function"
    },
    {
      "inputs": [],
      "name": "rentAmount",
      "outputs": [
        {
          "internalType": "uint256",
          "name": "",
          "type": "uint256"
        }
      ],
      "stateMutability": "view",
      "type": "function"
    },
    {
      "inputs": [],
      "name": "renter",
      "outputs": [
        {
          "internalType": "address",
          "name": "",
          "type": "address"
        }
      ],
      "stateMutability": "view",
      "type": "function"
    },
    {
      "inputs": [],
      "name": "payRent",
      "outputs": [],
      "stateMutability": "payable",
      "type": "function"
    },
    {
      "inputs": [],
      "name": "withdrawRent",
      "outputs": [],
      "stateMutability": "nonpayable",
      "type": "function"
    }
  ],
  "bytecode": "0x608060405234801562000010575f80fd5b5060405162000ace38038062000ace833981810160405281019062000036919062000217565b5f73ffffffffffffffffffffffffffffffffffffffff168273ffffffffffffffffffffffffffffffffffffffff1603620000a7576040517f08c379a00000000000000000000000000000000000000000000000000000000081526004016200009e90620002ba565b60405180910390fd5b5f8111620000ec576040517f08c379a0000000000000000000000000000000000000000000000000000000008152600401620000e39062000328565b60405180910390fd5b335f806101000a81548173ffffffffffffffffffffffffffffffffffffffff021916908373ffffffffffffffffffffffffffffffffffffffff1602179055508160015f6101000a81548173ffffffffffffffffffffffffffffffffffffffff021916908373ffffffffffffffffffffffffffffffffffffffff16021790555080600281905550505062000348565b5f80fd5b5f73ffffffffffffffffffffffffffffffffffffffff82169050919050565b5f620001a9826200017e565b9050919050565b620001bb816200019d565b8114620001c6575f80fd5b50565b5f81519050620001d981620001b0565b92915050565b5f819050919050565b620001f381620001df565b8114620001fe575f80fd5b50565b5f815190506200021181620001e8565b92915050565b5f806040838503121562000230576200022f6200017a565b5b5f6200023f85828601620001c9565b9250506020620002528582860162000201565b9150509250929050565b5f82825260208201905092915050565b7f496e76616c69642072656e7465722061646472657373000000000000000000005f82015250565b5f620002a26016836200025c565b9150620002af826200026c565b602082019050919050565b5f6020820190508181035f830152620002d38162000294565b9050919050565b7f496e76616c69642072656e7420616d6f756e74000000000000000000000000005f82015250565b5f620003106013836200025c565b91506200031d82620002da565b602082019050919050565b5f6020820190508181035f830152620003418162000302565b9050919050565b61077880620003565f395ff3fe608060405260043610610049575f3560e01c80632e88ab0b1461004d5780636322182e146100775780638da5cb5b1461008d578063a709c4fe146100b7578063f8ef1e13146100c1575b5f80fd5b348015610058575f80fd5b506100616100eb565b60405161006e919061045b565b60405180910390f35b348015610082575f80fd5b5061008b610110565b005b348015610098575f80fd5b506100a161028f565b6040516100ae9190610494565b60405180910390f35b6100bf6102b2565b005b3480156100cc575f80fd5b506100d5610416565b6040516100e291906104c5565b60405180910390f35b60015f9054906101000a900473ffffffffffffffffffffffffffffffffffffffff1681565b5f8054906101000a900473ffffffffffffffffffffffffffffffffffffffff1673ffffffffffffffffffffffffffffffffffffffff163373ffffffffffffffffffffffffffffffffffffffff161461019d576040517f08c379a00000000000000000000000000000000000000000000000000000000081526004016101949061055e565b60405180910390fd5b5f8054906101000a900473ffffffffffffffffffffffffffffffffffffffff1673ffffffffffffffffffffffffffffffffffffffff163373ffffffffffffffffffffffffffffffffffffffff161461022a576040517f08c379a0000000000000000000000000000000000000000000000000000000008152600401610221906105c6565b60405180910390fd5b5f8054906101000a900473ffffffffffffffffffffffffffffffffffffffff1673ffffffffffffffffffffffffffffffffffffffff166108fc4790811502906040515f60405180830381858888f1935050505015801561028c573d5f803e3d5ffd5b50565b5f8054906101000a900473ffffffffffffffffffffffffffffffffffffffff1681565b60015f9054906101000a900473ffffffffffffffffffffffffffffffffffffffff1673ffffffffffffffffffffffffffffffffffffffff163373ffffffffffffffffffffffffffffffffffffffff1614610341576040517f08c379a000000000000000000000000000000000000000000000000000000000815260040161033890610654565b60405180910390fd5b60015f9054906101000a900473ffffffffffffffffffffffffffffffffffffffff1673ffffffffffffffffffffffffffffffffffffffff163373ffffffffffffffffffffffffffffffffffffffff16146103d0576040517f08c379a00000000000000000000000000000000000000000000000000000000081526004016103c7906106bc565b60405180910390fd5b6002543414610414576040517f08c379a000000000000000000000000000000000000000000000000000000000815260040161040b90610724565b60405180910390fd5b565b60025481565b5f73ffffffffffffffffffffffffffffffffffffffff82169050919050565b5f6104458261041c565b9050919050565b6104558161043b565b82525050565b5f60208201905061046e5f83018461044c565b92915050565b5f61047e8261041c565b9050919050565b61048e81610474565b82525050565b5f6020820190506104a75f830184610485565b92915050565b5f819050919050565b6104bf816104ad565b82525050565b5f6020820190506104d85f8301846104b6565b92915050565b5f82825260208201905092915050565b7f4f6e6c7920746865206f776e65722063616e2063616c6c20746869732066756e5f8201527f6374696f6e000000000000000000000000000000000000000000000000000000602082015250565b5f6105486025836104de565b9150610553826104ee565b604082019050919050565b5f6020820190508181035f8301526105758161053c565b9050919050565b7f4f6e6c7920746865206f776e65722063616e2077697468647261772072656e745f82015250565b5f6105b06020836104de565b91506105bb8261057c565b602082019050919050565b5f6020820190508181035f8301526105dd816105a4565b9050919050565b7f4f6e6c79207468652072656e7465722063616e2063616c6c20746869732066755f8201527f6e6374696f6e0000000000000000000000000000000000000000000000000000602082015250565b5f61063e6026836104de565b9150610649826105e4565b604082019050919050565b5f6020820190508181035f83015261066b81610632565b9050919050565b7f4f6e6c79207468652072656e7465722063616e207061792072656e74000000005f82015250565b5f6106a6601c836104de565b91506106b182610672565b602082019050919050565b5f6020820190508181035f8301526106d38161069a565b9050919050565b7f4d757374207061792074686520636f72726563742072656e7420616d6f756e745f82015250565b5f61070e6020836104de565b9150610719826106da565b602082019050919050565b5f6020820190508181035f83015261073b81610702565b905091905056fea2646970667358221220ff48f1157aeec5162f0d788e99e7ef88302c1c9aa9a8036cca1875a4e11518ec64736f6c63430008150033",
  "immutableReferences": {},
  "source": "// SPDX-License-Identifier: MIT\r\npragma solidity ^0.8.0;\r\n\r\ncontract RentalPayment {\r\n    address payable public owner;\r\n    address public renter;\r\n    uint256 public rentAmount;\r\n\r\n    constructor(address _renter, uint256 _rentAmount) {\r\n        require(_renter != address(0), \"Invalid renter address\");\r\n        require(_rentAmount > 0, \"Invalid rent amount\");\r\n\r\n        owner = payable(msg.sender);\r\n        renter = _renter;\r\n        rentAmount = _rentAmount;\r\n    }\r\n\r\n    modifier onlyRenter() {\r\n        require(msg.sender == renter, \"Only the renter can call this function\");\r\n        _;\r\n    }\r\n\r\n    modifier onlyOwner() {\r\n        require(msg.sender == owner, \"Only the owner can call this function\");\r\n        _;\r\n    }\r\n    function payRent() external payable onlyRenter {\r\n        require(msg.sender == renter, \"Only the renter can pay rent\");\r\n        require(msg.value == rentAmount, \"Must pay the correct rent amount\");\r\n    }\r\n\r\n    function withdrawRent() external onlyOwner {\r\n        require(msg.sender == owner, \"Only the owner can withdraw rent\");\r\n        owner.transfer(address(this).balance);\r\n    }\r\n}",
  "sourcePath": "C:\\Users\\seifj\\OneDrive\\Documents\\GitHub\\cryptorides\\payment\\contracts\\RentalPayment.sol",
  "compiler": {
    "name": "solc",
    "version": "0.8.21+commit.d9974bed.Emscripten.clang"
  },
  "schemaVersion": "3.4.16",
  "updatedAt": "2024-05-01T01:45:28.981Z",
  "devdoc": {
    "kind": "dev",
    "methods": {},
    "version": 1
  },
  "userdoc": {
    "kind": "user",
    "methods": {},
    "version": 1
  }
}